{
  "_format": "hh-sol-artifact-1",
  "contractName": "VestingV1",
  "sourceName": "contracts/vesting-v1/VestingV1.sol",
  "abi": [
    {
      "inputs": [
        {
          "internalType": "address",
          "name": "_projectToken",
          "type": "address"
        },
        {
          "internalType": "uint256",
          "name": "_vestingDurationSeconds",
          "type": "uint256"
        },
        {
          "internalType": "address",
          "name": "_projectWallet",
          "type": "address"
        }
      ],
      "stateMutability": "nonpayable",
      "type": "constructor"
    },
    {
      "inputs": [],
      "name": "AlreadyActivated",
      "type": "error"
    },
    {
      "inputs": [],
      "name": "EmergencyReleaseActive",
      "type": "error"
    },
    {
      "inputs": [],
      "name": "NotActivated",
      "type": "error"
    },
    {
      "inputs": [],
      "name": "NotEmergencyReleased",
      "type": "error"
    },
    {
      "inputs": [],
      "name": "NothingToClaim",
      "type": "error"
    },
    {
      "inputs": [],
      "name": "OnlyProjectOrSender",
      "type": "error"
    },
    {
      "inputs": [
        {
          "internalType": "uint256",
          "name": "vestingStartTime",
          "type": "uint256"
        }
      ],
      "name": "StartTimeInPast",
      "type": "error"
    },
    {
      "inputs": [
        {
          "internalType": "uint256",
          "name": "vestingStartTime",
          "type": "uint256"
        },
        {
          "internalType": "uint256",
          "name": "maxStartTime",
          "type": "uint256"
        }
      ],
      "name": "StartTimeTooDistant",
      "type": "error"
    },
    {
      "inputs": [],
      "name": "TotalAmountZero",
      "type": "error"
    },
    {
      "inputs": [
        {
          "internalType": "uint256",
          "name": "vestingPeriodSeconds",
          "type": "uint256"
        }
      ],
      "name": "VestingDurationTooLong",
      "type": "error"
    },
    {
      "inputs": [],
      "name": "VestingNotStarted",
      "type": "error"
    },
    {
      "anonymous": false,
      "inputs": [],
      "name": "Activated",
      "type": "event"
    },
    {
      "anonymous": false,
      "inputs": [
        {
          "indexed": true,
          "internalType": "address",
          "name": "user",
          "type": "address"
        },
        {
          "indexed": false,
          "internalType": "uint256",
          "name": "newAmount",
          "type": "uint256"
        },
        {
          "indexed": false,
          "internalType": "uint256",
          "name": "oldAmount",
          "type": "uint256"
        }
      ],
      "name": "AmountSet",
      "type": "event"
    },
    {
      "anonymous": false,
      "inputs": [
        {
          "indexed": true,
          "internalType": "address",
          "name": "user",
          "type": "address"
        },
        {
          "indexed": false,
          "internalType": "uint256",
          "name": "amount",
          "type": "uint256"
        },
        {
          "indexed": true,
          "internalType": "bool",
          "name": "isInitiatedByProject",
          "type": "bool"
        }
      ],
      "name": "Claimed",
      "type": "event"
    },
    {
      "anonymous": false,
      "inputs": [
        {
          "indexed": true,
          "internalType": "address",
          "name": "user",
          "type": "address"
        },
        {
          "indexed": false,
          "internalType": "uint256",
          "name": "amount",
          "type": "uint256"
        },
        {
          "indexed": true,
          "internalType": "bool",
          "name": "isInitiatedByProject",
          "type": "bool"
        }
      ],
      "name": "EmergencyClaimed",
      "type": "event"
    },
    {
      "anonymous": false,
      "inputs": [],
      "name": "EmergencyReleased",
      "type": "event"
    },
    {
      "anonymous": false,
      "inputs": [
        {
          "indexed": false,
          "internalType": "uint256",
          "name": "amount",
          "type": "uint256"
        }
      ],
      "name": "EtherRecovered",
      "type": "event"
    },
    {
      "anonymous": false,
      "inputs": [
        {
          "indexed": true,
          "internalType": "address",
          "name": "previousOwner",
          "type": "address"
        },
        {
          "indexed": true,
          "internalType": "address",
          "name": "newOwner",
          "type": "address"
        }
      ],
      "name": "OwnershipTransferred",
      "type": "event"
    },
    {
      "anonymous": false,
      "inputs": [
        {
          "indexed": true,
          "internalType": "address",
          "name": "previousProjectWallet",
          "type": "address"
        },
        {
          "indexed": true,
          "internalType": "address",
          "name": "newProjectWallet",
          "type": "address"
        }
      ],
      "name": "ProjectRoleTransferred",
      "type": "event"
    },
    {
      "anonymous": false,
      "inputs": [
        {
          "indexed": true,
          "internalType": "address",
          "name": "token",
          "type": "address"
        },
        {
          "indexed": false,
          "internalType": "uint256",
          "name": "amount",
          "type": "uint256"
        }
      ],
      "name": "TokenRecovered",
      "type": "event"
    },
    {
      "inputs": [],
      "name": "MAX_START_TIME_FROM_NOW",
      "outputs": [
        {
          "internalType": "uint256",
          "name": "",
          "type": "uint256"
        }
      ],
      "stateMutability": "view",
      "type": "function"
    },
    {
      "inputs": [],
      "name": "MAX_VESTING_DURATION_SECONDS",
      "outputs": [
        {
          "internalType": "uint256",
          "name": "",
          "type": "uint256"
        }
      ],
      "stateMutability": "view",
      "type": "function"
    },
    {
      "inputs": [],
      "name": "PROJECT_TOKEN",
      "outputs": [
        {
          "internalType": "contract IERC20",
          "name": "",
          "type": "address"
        }
      ],
      "stateMutability": "view",
      "type": "function"
    },
    {
      "inputs": [],
      "name": "VESTING_DURATION_SECONDS",
      "outputs": [
        {
          "internalType": "uint256",
          "name": "",
          "type": "uint256"
        }
      ],
      "stateMutability": "view",
      "type": "function"
    },
    {
      "inputs": [
        {
          "internalType": "uint256",
          "name": "_vestingStartTime",
          "type": "uint256"
        }
      ],
      "name": "activate",
      "outputs": [],
      "stateMutability": "nonpayable",
      "type": "function"
    },
    {
      "inputs": [
        {
          "internalType": "address",
          "name": "user",
          "type": "address"
        }
      ],
      "name": "claim",
      "outputs": [],
      "stateMutability": "nonpayable",
      "type": "function"
    },
    {
      "inputs": [
        {
          "internalType": "address",
          "name": "user",
          "type": "address"
        }
      ],
      "name": "claimableFor",
      "outputs": [
        {
          "internalType": "uint256",
          "name": "",
          "type": "uint256"
        }
      ],
      "stateMutability": "view",
      "type": "function"
    },
    {
      "inputs": [
        {
          "internalType": "address",
          "name": "user",
          "type": "address"
        }
      ],
      "name": "emergencyClaim",
      "outputs": [],
      "stateMutability": "nonpayable",
      "type": "function"
    },
    {
      "inputs": [],
      "name": "emergencyRelease",
      "outputs": [],
      "stateMutability": "nonpayable",
      "type": "function"
    },
    {
      "inputs": [],
      "name": "isActivated",
      "outputs": [
        {
          "internalType": "bool",
          "name": "",
          "type": "bool"
        }
      ],
      "stateMutability": "view",
      "type": "function"
    },
    {
      "inputs": [],
      "name": "isEmergencyReleased",
      "outputs": [
        {
          "internalType": "bool",
          "name": "",
          "type": "bool"
        }
      ],
      "stateMutability": "view",
      "type": "function"
    },
    {
      "inputs": [],
      "name": "isVestingStarted",
      "outputs": [
        {
          "internalType": "bool",
          "name": "",
          "type": "bool"
        }
      ],
      "stateMutability": "view",
      "type": "function"
    },
    {
      "inputs": [],
      "name": "owner",
      "outputs": [
        {
          "internalType": "address",
          "name": "",
          "type": "address"
        }
      ],
      "stateMutability": "view",
      "type": "function"
    },
    {
      "inputs": [],
      "name": "projectWallet",
      "outputs": [
        {
          "internalType": "address",
          "name": "",
          "type": "address"
        }
      ],
      "stateMutability": "view",
      "type": "function"
    },
    {
      "inputs": [],
      "name": "recoverEther",
      "outputs": [],
      "stateMutability": "nonpayable",
      "type": "function"
    },
    {
      "inputs": [
        {
          "internalType": "address",
          "name": "tokenAddress",
          "type": "address"
        }
      ],
      "name": "recoverToken",
      "outputs": [],
      "stateMutability": "nonpayable",
      "type": "function"
    },
    {
      "inputs": [],
      "name": "renounceOwnership",
      "outputs": [],
      "stateMutability": "nonpayable",
      "type": "function"
    },
    {
      "inputs": [
        {
          "internalType": "address",
          "name": "user",
          "type": "address"
        },
        {
          "internalType": "uint256",
          "name": "newAmount",
          "type": "uint256"
        }
      ],
      "name": "setAmount",
      "outputs": [],
      "stateMutability": "nonpayable",
      "type": "function"
    },
    {
      "inputs": [],
      "name": "totalAmount",
      "outputs": [
        {
          "internalType": "uint256",
          "name": "",
          "type": "uint256"
        }
      ],
      "stateMutability": "view",
      "type": "function"
    },
    {
      "inputs": [],
      "name": "totalClaimed",
      "outputs": [
        {
          "internalType": "uint256",
          "name": "",
          "type": "uint256"
        }
      ],
      "stateMutability": "view",
      "type": "function"
    },
    {
      "inputs": [
        {
          "internalType": "address",
          "name": "user",
          "type": "address"
        }
      ],
      "name": "totalVestedFor",
      "outputs": [
        {
          "internalType": "uint256",
          "name": "",
          "type": "uint256"
        }
      ],
      "stateMutability": "view",
      "type": "function"
    },
    {
      "inputs": [
        {
          "internalType": "address",
          "name": "newOwner",
          "type": "address"
        }
      ],
      "name": "transferOwnership",
      "outputs": [],
      "stateMutability": "nonpayable",
      "type": "function"
    },
    {
      "inputs": [
        {
          "internalType": "address",
          "name": "newProjectWallet",
          "type": "address"
        }
      ],
      "name": "transferProjectRole",
      "outputs": [],
      "stateMutability": "nonpayable",
      "type": "function"
    },
    {
      "inputs": [
        {
          "internalType": "address",
          "name": "",
          "type": "address"
        }
      ],
      "name": "userVestings",
      "outputs": [
        {
          "internalType": "uint256",
          "name": "amount",
          "type": "uint256"
        },
        {
          "internalType": "uint256",
          "name": "claimed",
          "type": "uint256"
        }
      ],
      "stateMutability": "view",
      "type": "function"
    },
    {
      "inputs": [],
      "name": "vestingStartTime",
      "outputs": [
        {
          "internalType": "uint256",
          "name": "",
          "type": "uint256"
        }
      ],
      "stateMutability": "view",
      "type": "function"
    }
  ],
  "bytecode": "0x60c06040526001805460ff60a01b191690553480156200001e57600080fd5b5060405162001ded38038062001ded8339810160408190526200004191620001dc565b806200004d336200009f565b6200005881620000ef565b506312cc0300821115620000875760405163769709d560e01b8152600481018390526024015b60405180910390fd5b506001600160a01b0390911660805260a0526200021d565b600080546001600160a01b038381166001600160a01b0319831681178455604051919092169283917f8be0079c531659141344cd1fd0a4f28419497f9722a3daafe3b4186f6b6457e09190a35050565b6001600160a01b0381166200016d5760405162461bcd60e51b815260206004820152603360248201527f50726f6a656374526f6c653a206e65772070726f6a6563742077616c6c65742060448201527f697320746865207a65726f20616464726573730000000000000000000000000060648201526084016200007e565b600180546001600160a01b038381166001600160a01b0319831681179093556040519116919082907f0945a57dd9b20edc3efdcd390889b9055b9e02e30781ae353c1437b67a67818d90600090a35050565b80516001600160a01b0381168114620001d757600080fd5b919050565b600080600060608486031215620001f257600080fd5b620001fd84620001bf565b9250602084015191506200021460408501620001bf565b90509250925092565b60805160a051611b8762000266600039600081816102650152610e7d0152600081816103ab015281816106490152818161087201528181610abf0152610dc30152611b876000f3fe608060405234801561001057600080fd5b50600436106101a35760003560e01c80638da5cb5b116100ee578063c2d5a33111610097578063d54ad2a111610071578063d54ad2a11461038a578063ee8ad52814610393578063f0686c80146103a6578063f2fde38b146103cd57600080fd5b8063c2d5a33114610328578063cf7f9ed01461033b578063d2fafb191461037757600080fd5b8063a8660a78116100c8578063a8660a78146102ec578063b260c42a146102f5578063beb08ab91461030857600080fd5b80638da5cb5b1461028757806392f35406146102c65780639be65a60146102d957600080fd5b806344ae086a1161015057806352d8bfc21161012a57806352d8bfc214610250578063715018a61461025857806378516c851461026057600080fd5b806344ae086a14610229578063472db2f1146102335780634a8c1fb41461024657600080fd5b80631e83409a116101815780631e83409a14610203578063331707a914610216578063381cec911461022157600080fd5b806303b3ebb8146101a85780631a39d8ef146101e25780631b393b9a146101f9575b600080fd5b6001546101cd9074010000000000000000000000000000000000000000900460ff1681565b60405190151581526020015b60405180910390f35b6101eb60035481565b6040519081526020016101d9565b6102016103e0565b005b610201610211366004611980565b6104e0565b6101eb6312cc030081565b6101cd6106c9565b6101eb6276a70081565b610201610241366004611980565b6106e9565b60025415156101cd565b6102016108f3565b610201610956565b6101eb7f000000000000000000000000000000000000000000000000000000000000000081565b60005473ffffffffffffffffffffffffffffffffffffffff165b60405173ffffffffffffffffffffffffffffffffffffffff90911681526020016101d9565b6102016102d4366004611980565b61096a565b6102016102e7366004611980565b610a22565b6101eb60025481565b61020161030336600461199b565b610be6565b6001546102a19073ffffffffffffffffffffffffffffffffffffffff1681565b6101eb610336366004611980565b610e1b565b610362610349366004611980565b6005602052600090815260409020805460019091015482565b604080519283526020830191909152016101d9565b6102016103853660046119b4565b610ec9565b6101eb60045481565b6101eb6103a1366004611980565b611086565b6102a17f000000000000000000000000000000000000000000000000000000000000000081565b6102016103db366004611980565b6110c8565b6103e861117c565b60015474010000000000000000000000000000000000000000900460ff161561043d576040517f87997c3b00000000000000000000000000000000000000000000000000000000815260040160405180910390fd5b600254610476576040517f037c597f00000000000000000000000000000000000000000000000000000000815260040160405180910390fd5b600180547fffffffffffffffffffffff00ffffffffffffffffffffffffffffffffffffffff16740100000000000000000000000000000000000000001790556040517f99d3926727438d12bb27961906549b6ea6251583f29ef4a8085863ebf37625a990600090a1565b600154819073ffffffffffffffffffffffffffffffffffffffff1633148061051d57503373ffffffffffffffffffffffffffffffffffffffff8216145b610553576040517f8d34627500000000000000000000000000000000000000000000000000000000815260040160405180910390fd5b61055b6106c9565b610591576040517f35549be800000000000000000000000000000000000000000000000000000000815260040160405180910390fd5b600061059c83611086565b9050806000036105d8576040517f969bf72800000000000000000000000000000000000000000000000000000000815260040160405180910390fd5b73ffffffffffffffffffffffffffffffffffffffff831660009081526005602052604081206001018054839290610610908490611a0d565b9250508190555080600460008282546106299190611a0d565b90915550610670905073ffffffffffffffffffffffffffffffffffffffff7f00000000000000000000000000000000000000000000000000000000000000001684836111fd565b60015460405182815273ffffffffffffffffffffffffffffffffffffffff9182163314918516907ffa8256f7c08bb01a03ea96f8b3a904a4450311c9725d1c52cdbe21ed3dc42dcc9060200160405180910390a3505050565b60006106d6600254151590565b80156106e457504260025411155b905090565b600154819073ffffffffffffffffffffffffffffffffffffffff1633148061072657503373ffffffffffffffffffffffffffffffffffffffff8216145b61075c576040517f8d34627500000000000000000000000000000000000000000000000000000000815260040160405180910390fd5b60015474010000000000000000000000000000000000000000900460ff166107b0576040517f4d6fa81b00000000000000000000000000000000000000000000000000000000815260040160405180910390fd5b73ffffffffffffffffffffffffffffffffffffffff82166000908152600560205260408120600181015481549192916107e99190611a20565b905080600003610825576040517f969bf72800000000000000000000000000000000000000000000000000000000815260040160405180910390fd5b808260010160008282546108399190611a0d565b9250508190555080600460008282546108529190611a0d565b90915550610899905073ffffffffffffffffffffffffffffffffffffffff7f00000000000000000000000000000000000000000000000000000000000000001685836111fd565b60015460405182815273ffffffffffffffffffffffffffffffffffffffff9182163314918616907f98a53b24701c9d09065df2c4fd10afefc78c4a2ce1c2d546e6097ef50dd22d039060200160405180910390a350505050565b6108fb61117c565b60015447906109209073ffffffffffffffffffffffffffffffffffffffff16826112d6565b6040518181527fded9e5219cc8afc37a129b46dc375a8d1bfc8571d6ba63b3366509b687c234199060200160405180910390a150565b61095e61117c565b6109686000611430565b565b60015473ffffffffffffffffffffffffffffffffffffffff163314610a16576040517f08c379a000000000000000000000000000000000000000000000000000000000815260206004820152602d60248201527f50726f6a656374526f6c653a2063616c6c6572206973206e6f7420746865207060448201527f726f6a6563742077616c6c65740000000000000000000000000000000000000060648201526084015b60405180910390fd5b610a1f816114a5565b50565b610a2a61117c565b6040517f70a0823100000000000000000000000000000000000000000000000000000000815230600482015260009073ffffffffffffffffffffffffffffffffffffffff8316906370a0823190602401602060405180830381865afa158015610a97573d6000803e3d6000fd5b505050506040513d601f19601f82011682018060405250810190610abb9190611a33565b90507f000000000000000000000000000000000000000000000000000000000000000073ffffffffffffffffffffffffffffffffffffffff168273ffffffffffffffffffffffffffffffffffffffff1603610b6b576000600454600354610b229190611a20565b9050818110610b5d576040517f969bf72800000000000000000000000000000000000000000000000000000000815260040160405180910390fd5b610b678183611a20565b9150505b600154610b929073ffffffffffffffffffffffffffffffffffffffff8481169116836111fd565b8173ffffffffffffffffffffffffffffffffffffffff167f4590b594be6fdef6bd5e18792a2494ddf2156b618c7bbe48d13a92831208af0582604051610bda91815260200190565b60405180910390a25050565b60015473ffffffffffffffffffffffffffffffffffffffff163314610c8d576040517f08c379a000000000000000000000000000000000000000000000000000000000815260206004820152602d60248201527f50726f6a656374526f6c653a2063616c6c6572206973206e6f7420746865207060448201527f726f6a6563742077616c6c6574000000000000000000000000000000000000006064820152608401610a0d565b60025415610cc7576040517fef65161f00000000000000000000000000000000000000000000000000000000815260040160405180910390fd5b610cd46276a70042611a0d565b811115610d245780610ce96276a70042611a0d565b6040517f1596a8a400000000000000000000000000000000000000000000000000000000815260048101929092526024820152604401610a0d565b42811015610d61576040517f9b5ea9f700000000000000000000000000000000000000000000000000000000815260048101829052602401610a0d565b600354600003610d9d576040517f2731b0a200000000000000000000000000000000000000000000000000000000815260040160405180910390fd5b6002819055600154600354610def9173ffffffffffffffffffffffffffffffffffffffff7f000000000000000000000000000000000000000000000000000000000000000081169291169030906115bf565b6040517fed1cd0670ee0c0017f550451a038818c696d0b6a9d6ce5b369e44275573cf9b090600090a150565b6000610e256106c9565b610e3157506000919050565b73ffffffffffffffffffffffffffffffffffffffff82166000908152600560209081526040918290208251808401909352805480845260019091015491830191909152600254610ec2917f000000000000000000000000000000000000000000000000000000000000000091610ea79042611a20565b610eb19190611a4c565b610ebb9190611a63565b8251611623565b9392505050565b60015473ffffffffffffffffffffffffffffffffffffffff163314610f70576040517f08c379a000000000000000000000000000000000000000000000000000000000815260206004820152602d60248201527f50726f6a656374526f6c653a2063616c6c6572206973206e6f7420746865207060448201527f726f6a6563742077616c6c6574000000000000000000000000000000000000006064820152608401610a0d565b60025415610faa576040517fef65161f00000000000000000000000000000000000000000000000000000000815260040160405180910390fd5b73ffffffffffffffffffffffffffffffffffffffff821660009081526005602052604090205480821115610ffe57610fe28183611a20565b60036000828254610ff39190611a0d565b9091555061101f9050565b6110088282611a20565b600360008282546110199190611a20565b90915550505b73ffffffffffffffffffffffffffffffffffffffff831660008181526005602090815260409182902085905581518581529081018490527f5d9aa01b5b718fb12bc855cfdbb89495cc15b4e620c3f1c3938de2329ce222eb910160405180910390a2505050565b73ffffffffffffffffffffffffffffffffffffffff81166000908152600560205260408120600101546110b883610e1b565b6110c29190611a20565b92915050565b6110d061117c565b73ffffffffffffffffffffffffffffffffffffffff8116611173576040517f08c379a000000000000000000000000000000000000000000000000000000000815260206004820152602660248201527f4f776e61626c653a206e6577206f776e657220697320746865207a65726f206160448201527f64647265737300000000000000000000000000000000000000000000000000006064820152608401610a0d565b610a1f81611430565b60005473ffffffffffffffffffffffffffffffffffffffff163314610968576040517f08c379a000000000000000000000000000000000000000000000000000000000815260206004820181905260248201527f4f776e61626c653a2063616c6c6572206973206e6f7420746865206f776e65726044820152606401610a0d565b60405173ffffffffffffffffffffffffffffffffffffffff83166024820152604481018290526112d19084907fa9059cbb00000000000000000000000000000000000000000000000000000000906064015b604080517fffffffffffffffffffffffffffffffffffffffffffffffffffffffffffffffe08184030181529190526020810180517bffffffffffffffffffffffffffffffffffffffffffffffffffffffff167fffffffff0000000000000000000000000000000000000000000000000000000090931692909217909152611639565b505050565b80471015611340576040517f08c379a000000000000000000000000000000000000000000000000000000000815260206004820152601d60248201527f416464726573733a20696e73756666696369656e742062616c616e63650000006044820152606401610a0d565b60008273ffffffffffffffffffffffffffffffffffffffff168260405160006040518083038185875af1925050503d806000811461139a576040519150601f19603f3d011682016040523d82523d6000602084013e61139f565b606091505b50509050806112d1576040517f08c379a000000000000000000000000000000000000000000000000000000000815260206004820152603a60248201527f416464726573733a20756e61626c6520746f2073656e642076616c75652c207260448201527f6563697069656e74206d617920686176652072657665727465640000000000006064820152608401610a0d565b6000805473ffffffffffffffffffffffffffffffffffffffff8381167fffffffffffffffffffffffff0000000000000000000000000000000000000000831681178455604051919092169283917f8be0079c531659141344cd1fd0a4f28419497f9722a3daafe3b4186f6b6457e09190a35050565b73ffffffffffffffffffffffffffffffffffffffff8116611548576040517f08c379a000000000000000000000000000000000000000000000000000000000815260206004820152603360248201527f50726f6a656374526f6c653a206e65772070726f6a6563742077616c6c65742060448201527f697320746865207a65726f2061646472657373000000000000000000000000006064820152608401610a0d565b6001805473ffffffffffffffffffffffffffffffffffffffff8381167fffffffffffffffffffffffff0000000000000000000000000000000000000000831681179093556040519116919082907f0945a57dd9b20edc3efdcd390889b9055b9e02e30781ae353c1437b67a67818d90600090a35050565b60405173ffffffffffffffffffffffffffffffffffffffff8085166024830152831660448201526064810182905261161d9085907f23b872dd000000000000000000000000000000000000000000000000000000009060840161124f565b50505050565b60008183106116325781610ec2565b5090919050565b600061169b826040518060400160405280602081526020017f5361666545524332303a206c6f772d6c6576656c2063616c6c206661696c65648152508573ffffffffffffffffffffffffffffffffffffffff166117489092919063ffffffff16565b90508051600014806116bc5750808060200190518101906116bc9190611a9e565b6112d1576040517f08c379a000000000000000000000000000000000000000000000000000000000815260206004820152602a60248201527f5361666545524332303a204552433230206f7065726174696f6e20646964206e60448201527f6f742073756363656564000000000000000000000000000000000000000000006064820152608401610a0d565b6060611757848460008561175f565b949350505050565b6060824710156117f1576040517f08c379a000000000000000000000000000000000000000000000000000000000815260206004820152602660248201527f416464726573733a20696e73756666696369656e742062616c616e636520666f60448201527f722063616c6c00000000000000000000000000000000000000000000000000006064820152608401610a0d565b6000808673ffffffffffffffffffffffffffffffffffffffff16858760405161181a9190611ae4565b60006040518083038185875af1925050503d8060008114611857576040519150601f19603f3d011682016040523d82523d6000602084013e61185c565b606091505b509150915061186d87838387611878565b979650505050505050565b6060831561190e5782516000036119075773ffffffffffffffffffffffffffffffffffffffff85163b611907576040517f08c379a000000000000000000000000000000000000000000000000000000000815260206004820152601d60248201527f416464726573733a2063616c6c20746f206e6f6e2d636f6e74726163740000006044820152606401610a0d565b5081611757565b61175783838151156119235781518083602001fd5b806040517f08c379a0000000000000000000000000000000000000000000000000000000008152600401610a0d9190611b00565b803573ffffffffffffffffffffffffffffffffffffffff8116811461197b57600080fd5b919050565b60006020828403121561199257600080fd5b610ec282611957565b6000602082840312156119ad57600080fd5b5035919050565b600080604083850312156119c757600080fd5b6119d083611957565b946020939093013593505050565b7f4e487b7100000000000000000000000000000000000000000000000000000000600052601160045260246000fd5b808201808211156110c2576110c26119de565b818103818111156110c2576110c26119de565b600060208284031215611a4557600080fd5b5051919050565b80820281158282048414176110c2576110c26119de565b600082611a99577f4e487b7100000000000000000000000000000000000000000000000000000000600052601260045260246000fd5b500490565b600060208284031215611ab057600080fd5b81518015158114610ec257600080fd5b60005b83811015611adb578181015183820152602001611ac3565b50506000910152565b60008251611af6818460208701611ac0565b9190910192915050565b6020815260008251806020840152611b1f816040850160208701611ac0565b601f017fffffffffffffffffffffffffffffffffffffffffffffffffffffffffffffffe016919091016040019291505056fea2646970667358221220f19eb14d68d51cb7191fd15206f2b3ca7b44161cc794eaa0096c8ad4ce844f9e64736f6c63430008130033",
  "linkReferences": {},
  "deployedLinkReferences": {}
}